{"abi":[{"type":"constructor","inputs":[{"name":"_forwarderAddress","type":"address","internalType":"address"}],"stateMutability":"nonpayable"},{"type":"function","name":"MAX_RATE_DIFFERENCE_BPS","inputs":[],"outputs":[{"name":"","type":"uint16","internalType":"uint16"}],"stateMutability":"view"},{"type":"function","name":"WORLD_ID_KYC_THRESHOLD_USD","inputs":[],"outputs":[{"name":"","type":"uint256","internalType":"uint256"}],"stateMutability":"view"},{"type":"function","name":"forwarderAddress","inputs":[],"outputs":[{"name":"","type":"address","internalType":"address"}],"stateMutability":"view"},{"type":"function","name":"getHolding","inputs":[{"name":"user","type":"address","internalType":"address"},{"name":"currencyCode","type":"bytes32","internalType":"bytes32"}],"outputs":[{"name":"","type":"uint256","internalType":"uint256"}],"stateMutability":"view"},{"type":"function","name":"getPendingOperation","inputs":[{"name":"operationId","type":"bytes32","internalType":"bytes32"}],"outputs":[{"name":"user","type":"address","internalType":"address"},{"name":"currencyCode","type":"bytes32","internalType":"bytes32"},{"name":"operationType","type":"uint8","internalType":"uint8"},{"name":"kycMode","type":"uint8","internalType":"uint8"},{"name":"amount","type":"uint256","internalType":"uint256"},{"name":"oracleRate","type":"uint256","internalType":"uint256"},{"name":"kycRequired","type":"bool","internalType":"bool"},{"name":"offchainKycVerified","type":"bool","internalType":"bool"},{"name":"processed","type":"bool","internalType":"bool"},{"name":"rejectionReason","type":"uint8","internalType":"uint8"}],"stateMutability":"view"},{"type":"function","name":"getPendingWorldId","inputs":[{"name":"operationId","type":"bytes32","internalType":"bytes32"}],"outputs":[{"name":"root","type":"uint256","internalType":"uint256"},{"name":"nullifierHash","type":"uint256","internalType":"uint256"},{"name":"proof","type":"uint256[8]","internalType":"uint256[8]"}],"stateMutability":"view"},{"type":"function","name":"nextOperationNonce","inputs":[],"outputs":[{"name":"","type":"uint256","internalType":"uint256"}],"stateMutability":"view"},{"type":"function","name":"onReport","inputs":[{"name":"metadata","type":"bytes","internalType":"bytes"},{"name":"report","type":"bytes","internalType":"bytes"}],"outputs":[],"stateMutability":"nonpayable"},{"type":"function","name":"pendingOperations","inputs":[{"name":"operationId","type":"bytes32","internalType":"bytes32"}],"outputs":[{"name":"user","type":"address","internalType":"address"},{"name":"currencyCode","type":"bytes32","internalType":"bytes32"},{"name":"operationType","type":"uint8","internalType":"enum StablecoinManager.OperationType"},{"name":"kycMode","type":"uint8","internalType":"enum StablecoinManager.KycMode"},{"name":"amount","type":"uint256","internalType":"uint256"},{"name":"oracleRate","type":"uint256","internalType":"uint256"},{"name":"kycRequired","type":"bool","internalType":"bool"},{"name":"offchainKycVerified","type":"bool","internalType":"bool"},{"name":"processed","type":"bool","internalType":"bool"},{"name":"rejectionReason","type":"uint8","internalType":"enum StablecoinManager.RejectionReason"},{"name":"requestedAt","type":"uint48","internalType":"uint48"}],"stateMutability":"view"},{"type":"function","name":"recordedOperations","inputs":[{"name":"operationId","type":"bytes32","internalType":"bytes32"}],"outputs":[{"name":"operationId","type":"bytes32","internalType":"bytes32"},{"name":"user","type":"address","internalType":"address"},{"name":"currencyCode","type":"bytes32","internalType":"bytes32"},{"name":"operationType","type":"uint8","internalType":"enum StablecoinManager.OperationType"},{"name":"amount","type":"uint256","internalType":"uint256"},{"name":"apiRate","type":"uint256","internalType":"uint256"},{"name":"oracleRate","type":"uint256","internalType":"uint256"},{"name":"differenceBps","type":"uint16","internalType":"uint16"},{"name":"resultingBalance","type":"uint256","internalType":"uint256"},{"name":"recordedAt","type":"uint48","internalType":"uint48"}],"stateMutability":"view"},{"type":"function","name":"supportsInterface","inputs":[{"name":"interfaceId","type":"bytes4","internalType":"bytes4"}],"outputs":[{"name":"","type":"bool","internalType":"bool"}],"stateMutability":"pure"},{"type":"function","name":"usedWorldIdNullifiers","inputs":[{"name":"nullifierHash","type":"uint256","internalType":"uint256"}],"outputs":[{"name":"used","type":"bool","internalType":"bool"}],"stateMutability":"view"},{"type":"event","name":"OperationRecorded","inputs":[{"name":"operationId","type":"bytes32","indexed":true,"internalType":"bytes32"},{"name":"user","type":"address","indexed":true,"internalType":"address"},{"name":"currencyCode","type":"bytes32","indexed":true,"internalType":"bytes32"},{"name":"operationType","type":"uint8","indexed":false,"internalType":"enum StablecoinManager.OperationType"},{"name":"amount","type":"uint256","indexed":false,"internalType":"uint256"},{"name":"apiRate","type":"uint256","indexed":false,"internalType":"uint256"},{"name":"oracleRate","type":"uint256","indexed":false,"internalType":"uint256"},{"name":"differenceBps","type":"uint16","indexed":false,"internalType":"uint16"},{"name":"resultingBalance","type":"uint256","indexed":false,"internalType":"uint256"}],"anonymous":false},{"type":"event","name":"OperationRejected","inputs":[{"name":"operationId","type":"bytes32","indexed":true,"internalType":"bytes32"},{"name":"user","type":"address","indexed":true,"internalType":"address"},{"name":"currencyCode","type":"bytes32","indexed":true,"internalType":"bytes32"},{"name":"operationType","type":"uint8","indexed":false,"internalType":"enum StablecoinManager.OperationType"},{"name":"amount","type":"uint256","indexed":false,"internalType":"uint256"},{"name":"apiRate","type":"uint256","indexed":false,"internalType":"uint256"},{"name":"oracleRate","type":"uint256","indexed":false,"internalType":"uint256"},{"name":"differenceBps","type":"uint16","indexed":false,"internalType":"uint16"}],"anonymous":false},{"type":"event","name":"OperationRequested","inputs":[{"name":"operationId","type":"bytes32","indexed":true,"internalType":"bytes32"},{"name":"user","type":"address","indexed":true,"internalType":"address"},{"name":"currencyCode","type":"bytes32","indexed":true,"internalType":"bytes32"},{"name":"operationType","type":"uint8","indexed":false,"internalType":"enum StablecoinManager.OperationType"},{"name":"amount","type":"uint256","indexed":false,"internalType":"uint256"},{"name":"oracleRate","type":"uint256","indexed":false,"internalType":"uint256"}],"anonymous":false},{"type":"error","name":"InsufficientBalance","inputs":[{"name":"currencyCode","type":"bytes32","internalType":"bytes32"},{"name":"available","type":"uint256","internalType":"uint256"},{"name":"requested","type":"uint256","internalType":"uint256"}]},{"type":"error","name":"InvalidAmount","inputs":[]},{"type":"error","name":"InvalidForwarder","inputs":[]},{"type":"error","name":"InvalidKycMode","inputs":[{"name":"kycMode","type":"uint8","internalType":"uint8"}]},{"type":"error","name":"InvalidOperationType","inputs":[{"name":"operationType","type":"uint8","internalType":"uint8"}]},{"type":"error","name":"InvalidRate","inputs":[]},{"type":"error","name":"InvalidUser","inputs":[]},{"type":"error","name":"OperationAlreadyProcessed","inputs":[{"name":"operationId","type":"bytes32","internalType":"bytes32"}]},{"type":"error","name":"UnauthorizedForwarder","inputs":[{"name":"caller","type":"address","internalType":"address"}]},{"type":"error","name":"UnknownOperation","inputs":[{"name":"operationId","type":"bytes32","internalType":"bytes32"}]}],"bytecode":{"object":"0x60a060405234801562000010575f80fd5b506040516200299d3803806200299d83398181016040528101906200003691906200013e565b805f73ffffffffffffffffffffffffffffffffffffffff168173ffffffffffffffffffffffffffffffffffffffff16036200009d576040517f5666e12100000000000000000000000000000000000000000000000000000000815260040160405180910390fd5b8073ffffffffffffffffffffffffffffffffffffffff1660808173ffffffffffffffffffffffffffffffffffffffff168152505050506200016e565b5f80fd5b5f73ffffffffffffffffffffffffffffffffffffffff82169050919050565b5f6200010882620000dd565b9050919050565b6200011a81620000fc565b811462000125575f80fd5b50565b5f8151905062000138816200010f565b92915050565b5f60208284031215620001565762000155620000d9565b5b5f620001658482850162000128565b91505092915050565b60805161280f6200018e5f395f818161038b015261046f015261280f5ff3fe608060405234801561000f575f80fd5b50600436106100b2575f3560e01c8063805f21321161006f578063805f2132146101a957806394c49cac146101c5578063b788b591146101ff578063b9b093921461021d578063edd37dcd1461024d578063f1d1ffb51461027f576100b2565b806301ffc9a7146100b6578063174ab889146100e657806322b772b81461010457806337f8eaa5146101345780633a37af34146101525780637c50a2c414610170575b5f80fd5b6100d060048036038101906100cb9190611a49565b6102b8565b6040516100dd9190611a8e565b60405180910390f35b6100ee610389565b6040516100fb9190611ae6565b60405180910390f35b61011e60048036038101906101199190611b32565b6103ad565b60405161012b9190611a8e565b60405180910390f35b61013c6103ca565b6040516101499190611b6c565b60405180910390f35b61015a6103cf565b6040516101679190611b6c565b60405180910390f35b61018a60048036038101906101859190611bb8565b6103d4565b6040516101a09a99989796959493929190611ca1565b60405180910390f35b6101c360048036038101906101be9190611d9c565b61046d565b005b6101df60048036038101906101da9190611bb8565b610519565b6040516101f69b9a99989796959493929190611ea6565b60405180910390f35b6102076105ec565b6040516102149190611f4f565b60405180910390f35b61023760048036038101906102329190611f92565b6105f2565b6040516102449190611b6c565b60405180910390f35b61026760048036038101906102629190611bb8565b610648565b60405161027693929190612075565b60405180910390f35b61029960048036038101906102949190611bb8565b6106c0565b6040516102af9a999897969594939291906120c6565b60405180910390f35b5f7f805f2132000000000000000000000000000000000000000000000000000000007bffffffffffffffffffffffffffffffffffffffffffffffffffffffff1916827bffffffffffffffffffffffffffffffffffffffffffffffffffffffff1916148061038257507f01ffc9a7000000000000000000000000000000000000000000000000000000007bffffffffffffffffffffffffffffffffffffffffffffffffffffffff1916827bffffffffffffffffffffffffffffffffffffffffffffffffffffffff1916145b9050919050565b7f000000000000000000000000000000000000000000000000000000000000000081565b6005602052805f5260405f205f915054906101000a900460ff1681565b5f5481565b606481565b6002602052805f5260405f205f91509050805f015490806001015f9054906101000a900473ffffffffffffffffffffffffffffffffffffffff1690806002015490806003015f9054906101000a900460ff1690806004015490806005015490806006015490806007015f9054906101000a900461ffff1690806008015490806009015f9054906101000a900465ffffffffffff1690508a565b7f000000000000000000000000000000000000000000000000000000000000000073ffffffffffffffffffffffffffffffffffffffff163373ffffffffffffffffffffffffffffffffffffffff16146104fd57336040517f74c068c20000000000000000000000000000000000000000000000000000000081526004016104f49190611ae6565b60405180910390fd5b610509848484846107d2565b61051382826107d8565b50505050565b6001602052805f5260405f205f91509050805f015f9054906101000a900473ffffffffffffffffffffffffffffffffffffffff1690806001015490806002015f9054906101000a900460ff16908060020160019054906101000a900460ff1690806003015490806004015490806005015f9054906101000a900460ff16908060050160019054906101000a900460ff16908060050160029054906101000a900460ff16908060050160039054906101000a900460ff16908060050160049054906101000a900465ffffffffffff1690508b565b6103e881565b5f60045f8473ffffffffffffffffffffffffffffffffffffffff1673ffffffffffffffffffffffffffffffffffffffff1681526020019081526020015f205f8381526020019081526020015f2054905092915050565b5f80610652611965565b5f60035f8681526020019081526020015f209050805f0154816001015482600201806008806020026040519081016040528092919082600880156106ab576020028201915b815481526020019060010190808311610697575b50505050509050935093509350509193909250565b5f805f805f805f805f805f60015f8d81526020019081526020015f209050805f015f9054906101000a900473ffffffffffffffffffffffffffffffffffffffff168160010154826002015f9054906101000a900460ff16600181111561072957610728611bf2565b5b8360020160019054906101000a900460ff16600181111561074d5761074c611bf2565b5b84600301548560040154866005015f9054906101000a900460ff168760050160019054906101000a900460ff168860050160029054906101000a900460ff168960050160039054906101000a900460ff1660028111156107b0576107af611bf2565b5b9a509a509a509a509a509a509a509a509a509a50509193959799509193959799565b50505050565b5f8282905011801561082b5750600160f81b82825f8181106107fd576107fc612160565b5b9050013560f81c60f81b7effffffffffffffffffffffffffffffffffffffffffffffffffffffffffffff1916145b156108505761084b8282600190809261084693929190612195565b61085f565b61085b565b61085a8282610eee565b5b5050565b5f805f848481019061087191906121f9565b9250925092505f60015f8581526020019081526020015f2090505f73ffffffffffffffffffffffffffffffffffffffff16815f015f9054906101000a900473ffffffffffffffffffffffffffffffffffffffff1673ffffffffffffffffffffffffffffffffffffffff160361091d57836040517f367250c60000000000000000000000000000000000000000000000000000000081526004016109149190612249565b60405180910390fd5b8060050160029054906101000a900460ff161561097157836040517fe18b40600000000000000000000000000000000000000000000000000000000081526004016109689190612249565b60405180910390fd5b5f83148061098257505f8160040154145b156109b9576040517f6a43f8d100000000000000000000000000000000000000000000000000000000815260040160405180910390fd5b5f6109c882600401548561142e565b90506103e861ffff168161ffff16106109f3576109e9858386846001611479565b5050505050610eea565b816005015f9054906101000a900460ff1615610a8d57600180811115610a1c57610a1b611bf2565b5b8260020160019054906101000a900460ff166001811115610a4057610a3f611bf2565b5b148015610a4a5750825b8260050160016101000a81548160ff021916908315150217905550610a7085838561155f565b610a8c57610a82858386846002611479565b5050505050610eea565b5b60018260050160026101000a81548160ff0219169083151502179055505f8260050160036101000a81548160ff02191690836002811115610ad157610ad0611bf2565b5b02179055505f60045f845f015f9054906101000a900473ffffffffffffffffffffffffffffffffffffffff1673ffffffffffffffffffffffffffffffffffffffff1673ffffffffffffffffffffffffffffffffffffffff1681526020019081526020015f205f846001015481526020019081526020015f205490505f8190505f6001811115610b6357610b62611bf2565b5b846002015f9054906101000a900460ff166001811115610b8657610b85611bf2565b5b03610ba257836003015482610b9b919061228f565b9050610c0a565b8184600301541115610bf75783600101548285600301546040517fead391f6000000000000000000000000000000000000000000000000000000008152600401610bee939291906122c2565b60405180910390fd5b836003015482610c0791906122f7565b90505b8060045f865f015f9054906101000a900473ffffffffffffffffffffffffffffffffffffffff1673ffffffffffffffffffffffffffffffffffffffff1673ffffffffffffffffffffffffffffffffffffffff1681526020019081526020015f205f866001015481526020019081526020015f2081905550604051806101400160405280888152602001855f015f9054906101000a900473ffffffffffffffffffffffffffffffffffffffff1673ffffffffffffffffffffffffffffffffffffffff16815260200185600101548152602001856002015f9054906101000a900460ff166001811115610cfe57610cfd611bf2565b5b815260200185600301548152602001878152602001856004015481526020018461ffff1681526020018281526020014265ffffffffffff1681525060025f8981526020019081526020015f205f820151815f01556020820151816001015f6101000a81548173ffffffffffffffffffffffffffffffffffffffff021916908373ffffffffffffffffffffffffffffffffffffffff160217905550604082015181600201556060820151816003015f6101000a81548160ff02191690836001811115610dcc57610dcb611bf2565b5b02179055506080820151816004015560a0820151816005015560c0820151816006015560e0820151816007015f6101000a81548161ffff021916908361ffff1602179055506101008201518160080155610120820151816009015f6101000a81548165ffffffffffff021916908365ffffffffffff1602179055509050508360010154845f015f9054906101000a900473ffffffffffffffffffffffffffffffffffffffff1673ffffffffffffffffffffffffffffffffffffffff16887f0121ab39d85a35f6a9dc747588d0828e6070f4aac5f80cf7af9eae5d317893f3876002015f9054906101000a900460ff1688600301548b8a600401548a89604051610eda9695949392919061232a565b60405180910390a4505050505050505b5050565b5f805f805f805f805f8a8a810190610f069190612524565b9850985098509850985098509850985098505f73ffffffffffffffffffffffffffffffffffffffff168973ffffffffffffffffffffffffffffffffffffffff1603610f7d576040517ffd684c3b00000000000000000000000000000000000000000000000000000000815260040160405180910390fd5b5f8603610fb6576040517f2c5211c600000000000000000000000000000000000000000000000000000000815260040160405180910390fd5b5f8503610fef576040517f6a43f8d100000000000000000000000000000000000000000000000000000000815260040160405180910390fd5b60018081111561100257611001611bf2565b5b60ff168760ff16111561104c57866040517f6b1b4adc00000000000000000000000000000000000000000000000000000000815260040161104391906125e8565b60405180910390fd5b60018081111561105f5761105e611bf2565b5b60ff168460ff1611156110a957836040517f6d6bd56b0000000000000000000000000000000000000000000000000000000081526004016110a091906125e8565b60405180910390fd5b5f89898989895f808154809291906110c090612601565b91905055466040516020016110db9796959493929190612648565b6040516020818303038152906040528051906020012090506040518061016001604052808b73ffffffffffffffffffffffffffffffffffffffff1681526020018a81526020018960ff16600181111561113757611136611bf2565b5b600181111561114957611148611bf2565b5b81526020018660ff16600181111561116457611163611bf2565b5b600181111561117657611175611bf2565b5b81526020018881526020018781526020016111918989611660565b151581526020015f151581526020015f151581526020015f60028111156111bb576111ba611bf2565b5b81526020014265ffffffffffff1681525060015f8381526020019081526020015f205f820151815f015f6101000a81548173ffffffffffffffffffffffffffffffffffffffff021916908373ffffffffffffffffffffffffffffffffffffffff160217905550602082015181600101556040820151816002015f6101000a81548160ff0219169083600181111561125557611254611bf2565b5b021790555060608201518160020160016101000a81548160ff0219169083600181111561128557611284611bf2565b5b02179055506080820151816003015560a0820151816004015560c0820151816005015f6101000a81548160ff02191690831515021790555060e08201518160050160016101000a81548160ff0219169083151502179055506101008201518160050160026101000a81548160ff0219169083151502179055506101208201518160050160036101000a81548160ff0219169083600281111561132a57611329611bf2565b5b02179055506101408201518160050160046101000a81548165ffffffffffff021916908365ffffffffffff16021790555090505060405180606001604052808581526020018481526020018381525060035f8381526020019081526020015f205f820151815f0155602082015181600101556040820151816002019060086113b3929190611988565b50905050888a73ffffffffffffffffffffffffffffffffffffffff16827faa6c42b8a94943f591a7eda0eaaabf113d15b39c8ad99328902b8f33b46ff00f8b60ff16600181111561140757611406611bf2565b5b8b8b604051611418939291906126b5565b60405180910390a4505050505050505050505050565b5f8082841161144857838361144391906122f7565b611455565b828461145491906122f7565b5b9050836127108261146691906126ea565b6114709190612758565b91505092915050565b60018460050160026101000a81548160ff021916908315150217905550808460050160036101000a81548160ff021916908360028111156114bd576114bc611bf2565b5b02179055508360010154845f015f9054906101000a900473ffffffffffffffffffffffffffffffffffffffff1673ffffffffffffffffffffffffffffffffffffffff16867f342c3934ddaadc74cf23dd77d251e435ed35de40f4f19f1dc62561d5435b6301876002015f9054906101000a900460ff168860030154888a6004015489604051611550959493929190612788565b60405180910390a45050505050565b5f8060035f8681526020019081526020015f2090505f815f0154148061158857505f8160010154145b15611596575f915050611659565b60055f826001015481526020019081526020015f205f9054906101000a900460ff16156115c6575f915050611659565b5f6001808111156115da576115d9611bf2565b5b8560020160019054906101000a900460ff1660018111156115fe576115fd611bf2565b5b146116125761160d8583611686565b611614565b835b905080611625575f92505050611659565b600160055f846001015481526020019081526020015f205f6101000a81548160ff0219169083151502179055506001925050505b9392505050565b5f60648261166e91906126ea565b620f42408461167d91906126ea565b11905092915050565b5f7fffffffffffffffffffffffffffffffffffffffffffffffffffffffffffffffff825f015414806116e8575060017fffffffffffffffffffffffffffffffffffffffffffffffffffffffffffffffff6116e091906122f7565b826001015410155b156116f5575f905061195f565b5f835f015f9054906101000a900473ffffffffffffffffffffffffffffffffffffffff1673ffffffffffffffffffffffffffffffffffffffff1690505f84600101545f1c90505f80600181111561174f5761174e611bf2565b5b866002015f9054906101000a900460ff16600181111561177257611771611bf2565b5b1461177e576001611780565b5f5b60ff1690505f80600181111561179957611798611bf2565b5b8760020160019054906101000a900460ff1660018111156117bd576117bc611bf2565b5b146117c95760016117cb565b5f5b60ff1690505f600182600a856117e191906126ea565b6117eb919061228f565b6117f5919061228f565b90505f62067932620164dd8387898d600401548e600301548e600101548f5f0154181818181818181890506001885f0154611830919061228f565b886002015f6008811061184657611845612160565b5b015414801561187c575060028860010154611861919061228f565b8860020160016008811061187857611877612160565b5b0154145b80156118a3575088600301548860020160026008811061189f5761189e612160565b5b0154145b80156118ca57508860040154886002016003600881106118c6576118c5612160565b5b0154145b80156118ed575085886002016004600881106118e9576118e8612160565b5b0154145b80156119105750848860020160056008811061190c5761190b612160565b5b0154145b80156119335750818860020160066008811061192f5761192e612160565b5b0154145b80156119565750808860020160076008811061195257611951612160565b5b0154145b96505050505050505b92915050565b604051806101000160405280600890602082028036833780820191505090505090565b82600881019282156119b7579160200282015b828111156119b657825182559160200191906001019061199b565b5b5090506119c491906119c8565b5090565b5b808211156119df575f815f9055506001016119c9565b5090565b5f604051905090565b5f80fd5b5f80fd5b5f7fffffffff0000000000000000000000000000000000000000000000000000000082169050919050565b611a28816119f4565b8114611a32575f80fd5b50565b5f81359050611a4381611a1f565b92915050565b5f60208284031215611a5e57611a5d6119ec565b5b5f611a6b84828501611a35565b91505092915050565b5f8115159050919050565b611a8881611a74565b82525050565b5f602082019050611aa15f830184611a7f565b92915050565b5f73ffffffffffffffffffffffffffffffffffffffff82169050919050565b5f611ad082611aa7565b9050919050565b611ae081611ac6565b82525050565b5f602082019050611af95f830184611ad7565b92915050565b5f819050919050565b611b1181611aff565b8114611b1b575f80fd5b50565b5f81359050611b2c81611b08565b92915050565b5f60208284031215611b4757611b466119ec565b5b5f611b5484828501611b1e565b91505092915050565b611b6681611aff565b82525050565b5f602082019050611b7f5f830184611b5d565b92915050565b5f819050919050565b611b9781611b85565b8114611ba1575f80fd5b50565b5f81359050611bb281611b8e565b92915050565b5f60208284031215611bcd57611bcc6119ec565b5b5f611bda84828501611ba4565b91505092915050565b611bec81611b85565b82525050565b7f4e487b71000000000000000000000000000000000000000000000000000000005f52602160045260245ffd5b60028110611c3057611c2f611bf2565b5b50565b5f819050611c4082611c1f565b919050565b5f611c4f82611c33565b9050919050565b611c5f81611c45565b82525050565b5f61ffff82169050919050565b611c7b81611c65565b82525050565b5f65ffffffffffff82169050919050565b611c9b81611c81565b82525050565b5f61014082019050611cb55f83018d611be3565b611cc2602083018c611ad7565b611ccf604083018b611be3565b611cdc606083018a611c56565b611ce96080830189611b5d565b611cf660a0830188611b5d565b611d0360c0830187611b5d565b611d1060e0830186611c72565b611d1e610100830185611b5d565b611d2c610120830184611c92565b9b9a5050505050505050505050565b5f80fd5b5f80fd5b5f80fd5b5f8083601f840112611d5c57611d5b611d3b565b5b8235905067ffffffffffffffff811115611d7957611d78611d3f565b5b602083019150836001820283011115611d9557611d94611d43565b5b9250929050565b5f805f8060408587031215611db457611db36119ec565b5b5f85013567ffffffffffffffff811115611dd157611dd06119f0565b5b611ddd87828801611d47565b9450945050602085013567ffffffffffffffff811115611e0057611dff6119f0565b5b611e0c87828801611d47565b925092505092959194509250565b60028110611e2b57611e2a611bf2565b5b50565b5f819050611e3b82611e1a565b919050565b5f611e4a82611e2e565b9050919050565b611e5a81611e40565b82525050565b60038110611e7157611e70611bf2565b5b50565b5f819050611e8182611e60565b919050565b5f611e9082611e74565b9050919050565b611ea081611e86565b82525050565b5f61016082019050611eba5f83018e611ad7565b611ec7602083018d611be3565b611ed4604083018c611c56565b611ee1606083018b611e51565b611eee608083018a611b5d565b611efb60a0830189611b5d565b611f0860c0830188611a7f565b611f1560e0830187611a7f565b611f23610100830186611a7f565b611f31610120830185611e97565b611f3f610140830184611c92565b9c9b505050505050505050505050565b5f602082019050611f625f830184611c72565b92915050565b611f7181611ac6565b8114611f7b575f80fd5b50565b5f81359050611f8c81611f68565b92915050565b5f8060408385031215611fa857611fa76119ec565b5b5f611fb585828601611f7e565b9250506020611fc685828601611ba4565b9150509250929050565b5f60089050919050565b5f81905092915050565b5f819050919050565b611ff681611aff565b82525050565b5f6120078383611fed565b60208301905092915050565b5f602082019050919050565b61202881611fd0565b6120328184611fda565b925061203d82611fe4565b805f5b8381101561206d5781516120548782611ffc565b965061205f83612013565b925050600181019050612040565b505050505050565b5f610140820190506120895f830186611b5d565b6120966020830185611b5d565b6120a3604083018461201f565b949350505050565b5f60ff82169050919050565b6120c0816120ab565b82525050565b5f610140820190506120da5f83018d611ad7565b6120e7602083018c611be3565b6120f4604083018b6120b7565b612101606083018a6120b7565b61210e6080830189611b5d565b61211b60a0830188611b5d565b61212860c0830187611a7f565b61213560e0830186611a7f565b612143610100830185611a7f565b6121516101208301846120b7565b9b9a5050505050505050505050565b7f4e487b71000000000000000000000000000000000000000000000000000000005f52603260045260245ffd5b5f80fd5b5f80fd5b5f80858511156121a8576121a761218d565b5b838611156121b9576121b8612191565b5b6001850283019150848603905094509492505050565b6121d881611a74565b81146121e2575f80fd5b50565b5f813590506121f3816121cf565b92915050565b5f805f606084860312156122105761220f6119ec565b5b5f61221d86828701611ba4565b935050602061222e86828701611b1e565b925050604061223f868287016121e5565b9150509250925092565b5f60208201905061225c5f830184611be3565b92915050565b7f4e487b71000000000000000000000000000000000000000000000000000000005f52601160045260245ffd5b5f61229982611aff565b91506122a483611aff565b92508282019050808211156122bc576122bb612262565b5b92915050565b5f6060820190506122d55f830186611be3565b6122e26020830185611b5d565b6122ef6040830184611b5d565b949350505050565b5f61230182611aff565b915061230c83611aff565b925082820390508181111561232457612323612262565b5b92915050565b5f60c08201905061233d5f830189611c56565b61234a6020830188611b5d565b6123576040830187611b5d565b6123646060830186611b5d565b6123716080830185611c72565b61237e60a0830184611b5d565b979650505050505050565b5f61239382611aa7565b9050919050565b6123a381612389565b81146123ad575f80fd5b50565b5f813590506123be8161239a565b92915050565b6123cd816120ab565b81146123d7575f80fd5b50565b5f813590506123e8816123c4565b92915050565b5f601f19601f8301169050919050565b7f4e487b71000000000000000000000000000000000000000000000000000000005f52604160045260245ffd5b612434826123ee565b810181811067ffffffffffffffff82111715612453576124526123fe565b5b80604052505050565b5f6124656119e3565b9050612471828261242b565b919050565b5f67ffffffffffffffff8211156124905761248f6123fe565b5b602082029050919050565b5f6124ad6124a884612476565b61245c565b905080602084028301858111156124c7576124c6611d43565b5b835b818110156124f057806124dc8882611b1e565b8452602084019350506020810190506124c9565b5050509392505050565b5f82601f83011261250e5761250d611d3b565b5b600861251b84828561249b565b91505092915050565b5f805f805f805f805f6102008a8c031215612542576125416119ec565b5b5f61254f8c828d016123b0565b99505060206125608c828d01611ba4565b98505060406125718c828d016123da565b97505060606125828c828d01611b1e565b96505060806125938c828d01611b1e565b95505060a06125a48c828d016123da565b94505060c06125b58c828d01611b1e565b93505060e06125c68c828d01611b1e565b9250506101006125d88c828d016124fa565b9150509295985092959850929598565b5f6020820190506125fb5f8301846120b7565b92915050565b5f61260b82611aff565b91507fffffffffffffffffffffffffffffffffffffffffffffffffffffffffffffffff820361263d5761263c612262565b5b600182019050919050565b5f60e08201905061265b5f83018a611ad7565b6126686020830189611be3565b61267560408301886120b7565b6126826060830187611b5d565b61268f6080830186611b5d565b61269c60a0830185611b5d565b6126a960c0830184611b5d565b98975050505050505050565b5f6060820190506126c85f830186611c56565b6126d56020830185611b5d565b6126e26040830184611b5d565b949350505050565b5f6126f482611aff565b91506126ff83611aff565b925082820261270d81611aff565b9150828204841483151761272457612723612262565b5b5092915050565b7f4e487b71000000000000000000000000000000000000000000000000000000005f52601260045260245ffd5b5f61276282611aff565b915061276d83611aff565b92508261277d5761277c61272b565b5b828204905092915050565b5f60a08201905061279b5f830188611c56565b6127a86020830187611b5d565b6127b56040830186611b5d565b6127c26060830185611b5d565b6127cf6080830184611c72565b969550505050505056fea2646970667358221220837683fc64f8ebccc2f4a187656c69fae0501b0427e749b5617ddb0bf8de05c064736f6c63430008180033","linkReferences":{}},"methodIdentifiers":{"MAX_RATE_DIFFERENCE_BPS()":"b788b591","WORLD_ID_KYC_THRESHOLD_USD()":"3a37af34","forwarderAddress()":"174ab889","getHolding(address,bytes32)":"b9b09392","getPendingOperation(bytes32)":"f1d1ffb5","getPendingWorldId(bytes32)":"edd37dcd","nextOperationNonce()":"37f8eaa5","onReport(bytes,bytes)":"805f2132","pendingOperations(bytes32)":"94c49cac","recordedOperations(bytes32)":"7c50a2c4","supportsInterface(bytes4)":"01ffc9a7","usedWorldIdNullifiers(uint256)":"22b772b8"},"id":0}